:100000000C94AB000C94C8000C94C8000C94C8006D
:100010000C94C8000C94C8000C94C8000C94C80040
:100020000C94C8000C940E100C948E0E0C94E10FDE
:100030000C945A0F0C94870F0C94610E0C942D0F96
:100040000C94020E0C94C8000C94CA070C94C800BF
:100050000C94AA080C945E040C94C8000C94C8007C
:100060000C94B40F0C94C2100C943B100C946810B8
:100070000C9495100C94000F0C94A5070C94C800D8
:100080000C9485080C94F0010C94C80041200000E9
:1000900042C80000461C40004CBEBC205A0E1BCA81
:1000A000749DC5AE3DCCCCCD3C23D70A38D1B71713
:1000B000322BCC7724E695950A4FB11F303132337D
:1000C0003435363738394142434445460000000153
:1000D00000080040000001000400000100080020AA
:1000E0000040008000000100041B5B25643B256488
:1000F00048001B5B3F32356C001B5B3F32356800AC
:100100001B5B25646D001B5B324A001B63000D0AFC
:1001100057494C4C2053414D504C452053454E536C
:100120004F52530D0A0D0A000D0A555255425520E3
:100130004143515549534954494F4E20414E442063
:10014000434F4E54524F4C204D4F44554C4520493F
:100150004E49540D0A0011241FBECFEFD0E1DEBF7F
:10016000CDBF11E0A0E0B1E0E0EEF3E300E00BBFB3
:1001700002C007900D92A431B107D9F713E0A4E1B2
:10018000B1E001C01D92AA3AB107E1F70C94AA119F
:100190000C940000209171002E7F2093710020911B
:1001A00071002D7F209371009C014427552760E842
:1001B0007EE380E090E00E943818203140F0822FEA
:1001C0009927409762E070E00E940318262F209341
:1001D00070000895A89AA99A909A919A10925C0139
:1001E00010925B0110925E0110925D0184E690E036
:1001F0000E94CA00E4E7F0E080818460808310926E
:100200001501109214018081816080838081806457
:100210008083789408958E7F90E0611191E0892B1E
:1002200080937200089590935C0180935B01089520
:1002300090935E0180935D010895E4E7F0E0808192
:100240008F70806A80830895E4E7F0E080818F708A
:10025000806D808308958091740087FFFCCF08959E
:1002600080937300E4E7F0E080818F708068808382
:100270000895882329F0809174008F70806C04C0E9
:10028000809174008F7080688093740008958091CD
:10029000730099270895809171009927089580919E
:1002A0001401909115010895982FFA01809174001E
:1002B0008E7F80937400809174008F70806A809329
:1002C00074008091740087FFFCCF9E7F9093730031
:1002D000809174008F7080688093740080917400A6
:1002E00087FFFCCF80917100883189F091E012C0C6
:1002F000808180937300809174008F7080688093F8
:1003000074008091740087FFFCCF319661506623A2
:1003100079F790E0809174008F70806D8093740005
:100320008091740084FFFCCF809174008160809381
:100330007400892F99270895282FDA0180911401DC
:1003400090911501892BD1F783E090E090931501EE
:10035000809314012160209316011092590160933B
:100360005A01809174008F70806A8093740080912C
:10037000140190911501892BD1F790E007C0E92F66
:10038000FF27E75CFE4F80818D939F5F9617B9F73B
:100390000895282FDA018091140190911501892B7D
:1003A000D1F782E090E090931501809314012E7FA5
:1003B0002093160190E007C08D91E92FFF27E95E99
:1003C000FE4F80839F5F9617B9F7109237016093B5
:1003D0003801809174008F70806A80937400089552
:1003E0001F920F920FB60F9211242F933F934F93AA
:1003F0005F936F937F938F939F93AF93BF93EF938D
:10040000FF9380917100887F803609F4A5C0813602
:1004100070F5883209F45FC0893298F4803109F4AC
:1004200057C0813138F4882309F4F4C0883009F0CA
:10043000FBC04EC0883109F44EC0803209F0F4C0D0
:10044000E9C0803409F47DC0813438F4803309F484
:10045000E1C0883309F0E8C063C0803509F465C0A5
:10046000883509F450C0883409F0DEC0D3C088391B
:1004700009F48BC08939B0F4883709F46DC0893725
:1004800038F4883609F468C0803709F0CDC064C0FC
:10049000883809F47AC0803909F467C0803809F0D7
:1004A000C3C063C0803B09F486C0813B38F4803A06
:1004B00009F46FC0883A09F0B7C07DC0803C09F4E8
:1004C000A4C0883C09F4A1C0883B09F0ADC087C036
:1004D000809116010FC090913701809138019817D3
:1004E00008F098C0E92FFF27E95EFE4F80819F5FEB
:1004F0009093370180937300809174008F708068AF
:100500008093740091C08091590190917300E82FFD
:10051000FF27E75CFE4F90838F5F809359017AC07D
:10052000809174008F70806879C08091590190919A
:100530007300E82FFF27E75CFE4F90838F5F809367
:10054000590120915901332780915A019927019728
:1005500028173907C4F019C085E090E09093150181
:1005600080931401109259014BC0809159019091D0
:100570007300E82FFF27E75CFE4F90838F5F809327
:100580005901803210F48FEF01C080E00E943901E0
:100590004BC0809174008F70806C80937400E091E8
:1005A0005B01F0915C013097D9F169E371E08091D2
:1005B0005901099535C084E090E09093150180932E
:1005C0001401E0915D01F0915E01309731F067E137
:1005D00071E080E209958093380110923701909183
:1005E0003701E92FFF27E95EFE4F8081809373007A
:1005F0009F5F9093370180913801981708F07CCF66
:10060000809174008F70806C7BCF809174008F70AC
:10061000806C04C0809174008F70806D8093740032
:100620001092150110921401FF91EF91BF91AF91BB
:100630009F918F917F916F915F914F913F912F91FA
:100640000F900FBE0F901F9018951F93CF93DF93BD
:10065000982F162FEA01809174008E7F809374008A
:10066000809174008F70806A809374008091740010
:1006700087FFFCCF916090937300809174008F701E
:100680008068809374008091740087FFFCCF809114
:100690007100803469F091E018C08FEF0E94390139
:1006A0008091740087FFFCCF809173008993115073
:1006B000123098F780E00E9439018091740087FF22
:1006C000FCCF80917300888390E0809174008F70DC
:1006D000806D8093740080917400816080937400B9
:1006E000892F9927DF91CF911F910895FC018FB732
:1006F000F894718360835383428317821682158234
:1007000014828FBF0895CF93DF93DC014FB7F89425
:10071000EC018C819D81892B11F4E0E01CC0FD016E
:1007200086819781ED91FC911197E80FF91FE08187
:100730000196ED019F838E832A813B818217930767
:1007400020F0821B930B9F838E83ED018C819D8112
:1007500001979D838C834FBF8E2F9927DF91CF9177
:100760000895FC014FB7F894848195816817790743
:10077000B0F486819781860F971F978386832281A5
:1007800033818217930720F0821B930B9783868314
:1007900084819581861B970B9583848302C0158283
:1007A00014824FBF0895FC01CB014FB7F894268106
:1007B000378162817381820F931F0E94EF1701902E
:1007C000F081E02DE80FF91F80814FBF9927089530
:1007D0001F93CF93DF93EC01162F4FB7F8942C8122
:1007E0003D816A817B8126173707A0F48E819F8126
:1007F000820F931F0E94EF17E881F981E80FF91F1C
:1008000010838C819D8101969D838C834FBF8FEFD8
:1008100090E003C04FBF80E090E0DF91CF911F9147
:100820000895FC018FB7F8948FBF82819381248152
:100830003581821B930B0895FC018FB7F8941582C4
:1008400014828FBF089533983798089596B1987F92
:10085000982B96B9089597B19F738295880F880F4A
:10086000807C982B97B9089597B1907E8F71982BC3
:1008700097B90895349A369A089586B19927807465
:10088000907008951092A10297B1907E8F71982B6D
:1008900097B9349A369A3699FECF84B125B1992703
:1008A0003327322F2227822B932B08950E94420454
:1008B0009695879596958795992708951F920F92FB
:1008C0000FB60F9211248F938FEF8093A1028F9117
:1008D0000F900FBE0F901F901895379A359886B1DC
:1008E000887F866086B981E00E942B043D98339A08
:1008F0001092A10278940895089582EA92E00895F2
:10090000FF920F931F93CF93DF93CDB7DEB722975C
:100910000FB6F894DEBF0FBECDBF8C01DC0116967A
:10092000FC0186818C3229F4FD0181818C3209F42D
:1009300061C0BE016F5F7F4FCD010E94BC18609304
:10094000450370934603809347039093480386E0E2
:10095000F82EF801EF0DF11D8081F3948C32C9F768
:10096000F801EF0DF11D8081F3948C32C9F7F80185
:10097000EF0DF11D8081F3948C32C9F7F801EF0D72
:10098000F11D8081F3948C32C9F7F801EF0DF11D50
:100990008081F3948C32C9F7F801EF0DF11D80814D
:1009A000F3948C32C9F7BE016F5F7F4FC8018F0D82
:1009B000911D0E94BC186093490370934A03809371
:1009C0004B0390934C03F801EF0DF11D8081F394DC
:1009D0008C32C9F7F801EF0DF11D8081F3948A3252
:1009E000C9F780915103909152030196909352035D
:1009F0008093510322960FB6F894DEBF0FBECDBF91
:100A0000DF91CF911F910F91FF900895FF920F9367
:100A10001F93CF93DF93CDB7DEB726970FB6F89429
:100A2000DEBF0FBECDBF8C01DC011696FC018681B6
:100A30008C3229F4FD0181818C3209F436C1BE016A
:100A40006F5F7F4FCD010E94BC18609309037093C4
:100A50000A0380930B0390930C0396E0F92EF801A0
:100A6000EF0DF11D8081F3948C32C9F7BE016F5FE9
:100A70007F4FC8018F0D911D0E94BC186093FD022D
:100A80007093FE028093FF029093000320E030E019
:100A900048EC52E40E941215AE014D5F5F4F0E9478
:100AA0008A1820E030E048EC52E40E94F41320E081
:100AB00030E040E752E40E9412152B813C814D81C9
:100AC0005E810E94C71325E33AEF4EE85CE30E9483
:100AD000F4139B01AC016093FD027093FE028093BE
:100AE000FF0290930003F801EF0DF11D8081F39454
:100AF0008C32C9F7F801EF0DF11D8081833559F46F
:100B0000DA01C901B0588093FD029093FE02A093D0
:100B1000FF02B0930003F801EF0DF11D8081F39403
:100B20008C32C9F7BE016F5F7F4FC8018F0D911DD9
:100B30000E94BC1860930103709302038093030327
:100B40009093040320E030E048EC52E40E94121538
:100B5000AE014D5F5F4F0E948A1820E030E048EC04
:100B600052E40E94F41320E030E040E752E40E9497
:100B700012152B813C814D815E810E94C71325E3B4
:100B80003AEF4EE85CE30E94F4139B01AC016093E2
:100B90000103709302038093030390930403F8010D
:100BA000EF0DF11D8081F3948C32C9F7F801EF0D40
:100BB000F11D8081873559F4DA01C901B05880935D
:100BC000010390930203A0930303B0930403F8017D
:100BD000EF0DF11D8081F3948C32C9F7F801EF0D10
:100BE000F11DE081E03359F0EC3249F080910D03C2
:100BF00090910E03019690930E0380930D03F801DC
:100C0000EF0DF11D8081F3948C32C9F7C8018F0D6F
:100C1000911D0E948D178093FC02F801EF0DF11DCC
:100C20008081F3948C32C9F7F801EF0DF11D8081BA
:100C3000F3948C32C9F7BE016F5F7F4FC8018F0DEF
:100C4000911D0E94BC186093050370930603809366
:100C5000070390930803F801EF0DF11D8081F394D1
:100C60008C32C9F7F801EF0DF11D8081F3948C32BD
:100C7000C9F7F801EF0DF11D8081F3948C32C9F7AB
:100C8000F801EF0DF11D8081F3948C32C9F7F80162
:100C9000EF0DF11D8081F3948C32C9F7F801EF0D4F
:100CA000F11D8081F3948A32C9F726960FB6F89425
:100CB000DEBF0FBECDBFDF91CF911F910F91FF908F
:100CC0000895CF92DF92EF92FF920F931F93CF93ED
:100CD000DF938C010BC060E070E0C8010E94D30379
:100CE000843209F44EC0C8010E948303F801848154
:100CF0009581892B81F76AC0BE01C8010E94D30388
:100D00008D3009F041C0BE016F5F7F4FC8010E9466
:100D1000D3038A30C9F5C8010E948303EE24FF245F
:100D200022EAC22E22E0D22E13C0FFE4EF16F10415
:100D300030F4C8010E948303F601808303C0C80118
:100D40000E9483030894E11CF11C0894C11CD11C6F
:100D5000CE010197E816F90641F7CF55DD4F18820D
:100D6000C8010E948303C8010E94830345E050E04C
:100D700060E071E082EA92E00E94BA17892B71F07C
:100D800013C0C1E0D0E001C02196F80184819581B3
:100D90000197C817D90708F4AFCF18C082EA92E0CC
:100DA0000E94060581E01EC045E050E066E071E06B
:100DB00082EA92E00E94BA17892B11F08FEF12C0DD
:100DC00082EA92E00E94800482E00CC0F801248153
:100DD0003581828193812817390718F0C8010E9454
:100DE0001C0480E09927DF91CF911F910F91FF9014
:100DF000EF90DF90CF900895089582EF92E00895EC
:100E00000895823040F4E82FFF27EE0FFF1FE158CE
:100E1000FD4F7183608308951F93182FCB01BA0192
:100E2000F3E0660F771F881F991FFA95D1F79B0192
:100E3000AC01220F331F441F551F60507C4D8B4067
:100E40009F4F0E94161821503040832F992711235D
:100E500029F0209399008093980003C029B98093CA
:100E600090001F9108959927A3E0880F991FAA95D4
:100E7000E1F78B5A9C4F08959927B3E0880F991F8B
:100E8000BA95E1F789599C4F0895E82F882339F0E6
:100E900080919B0085FFFCCF60939C0003C05D9B0D
:100EA000FECF6CB9FF27ED5AFC4F10820895682FD2
:100EB00080E00E9445070895682F81E00E94450761
:100EC000089520E030E0E82FFF2783E0EE0FFF1FBA
:100ED0008A95E1F7EB5AFC4F84819581892B11F4B7
:100EE00021E030E0C9010895CF93DF93882319F002
:100EF00060919C0001C06CB1282F3327E901CC0F11
:100F0000DD1FFE01E158FD4F80819181892B31F079
:100F10000190F081E02D862F099514C093E0220FF7
:100F2000331F9A95E1F7C9018B5A9C4F0E94E80341
:100F3000882341F4FE01E958FC4F8081918101969C
:100F400091838083DF91CF9108951F920F920FB606
:100F50000F9211242F933F934F935F936F937F933F
:100F60008F939F93AF93BF93EF93FF9381E00E9482
:100F70007407FF91EF91BF91AF919F918F917F91F6
:100F80006F915F914F913F912F910F900FBE0F90F6
:100F90001F9018951F920F920FB60F9211242F9346
:100FA0003F934F935F936F937F938F939F93AF93F1
:100FB000BF93EF93FF9380E00E947407FF91EF913E
:100FC000BF91AF919F918F917F916F915F914F9161
:100FD0003F912F910F900FBE0F901F9018958F92F9
:100FE0009F92AF92BF92CF92DF92EF92FF920F93B8
:100FF0001F93CF93DF93882EFB015A01E82EFF2425
:10100000870153E0000F111F5A95E1F709591C4F52
:10101000E8018C819D818A0D9B1D2A813B8182176D
:10102000930708F5A114B104F1F09080CC24DD24DD
:10103000EB0104C06881C8010E94E8030894C11C48
:10104000D11C2196CA14DB04A9F7E5E6F3E0EE0E05
:10105000FF1E8FEFE7018883692D882D0E944507C9
:101060008FEF90E002C080E090E0DF91CF911F9180
:101070000F91FF90EF90DF90CF90BF90AF909F9037
:101080008F900895992773E0880F991F7A95E1F75B
:1010900089599C4F0E94E8030895682F81E00E94BF
:1010A00042080895682F80E00E9442080895CF9377
:1010B000DF93282FA82FBB27ED01CB59DC4F888168
:1010C0008823E1F0FD0183E0EE0FFF1F8A95E1F731
:1010D000E959FC4F84819581892B79F0222339F0DD
:1010E0008FE693E00E94830380939C000BC087E609
:1010F00093E00E9483038CB905C01882AD5ABC4F9F
:101100008FEF8C93DF91CF9108951F920F920FB6BE
:101110000F9211242F933F934F935F936F937F937D
:101120008F939F93AF93BF93EF93FF9381E00E94C0
:101130005708FF91EF91BF91AF919F918F917F9150
:101140006F915F914F913F912F910F900FBE0F9034
:101150001F9018951F920F920FB60F9211242F9384
:101160003F934F935F936F937F938F939F93AF932F
:10117000BF93EF93FF9380E00E945708FF91EF9198
:10118000BF91AF919F918F917F916F915F914F919F
:101190003F912F910F900FBE0F901F9018951F93A6
:1011A000182F9927FC01EB59FC4F2FEF208323E0E8
:1011B000880F991F2A95E1F789599C4F0E94830354
:1011C000682F812F0E9445071F910895CF93DF93C9
:1011D000EB01E82FFF2733E0EE0FFF1F3A95E1F711
:1011E000EB5AFC4F82819381892B59F08481958140
:1011F000892B39F0CF010E94830388838FEF90E021
:1012000002C080E090E0DF91CF910895CF93DF930B
:10121000CDB7DEB721970FB6F894DEBF0FBECDBFB6
:10122000BE016F5F7F4F81E00E94E608882319F4BA
:101230008FEF9FEF02C08981992721960FB6F8940E
:10124000DEBF0FBECDBFDF91CF910895CF93DF9367
:10125000CDB7DEB721970FB6F894DEBF0FBECDBF76
:10126000BE016F5F7F4F80E00E94E608882319F47B
:101270008FEF9FEF02C08981992721960FB6F894CE
:10128000DEBF0FBECDBFDF91CF910895992743E018
:10129000880F991F4A95E1F78B5A9C4F0E941C04B6
:1012A000089540E850E06FEE71E08DE593E00E9414
:1012B000760340E150E06FE672E08FE693E00E9433
:1012C000760308950E9451091092820210928102C1
:1012D00088ED80939A0040E855E260E070E081E09C
:1012E0000E940C078FEF80935403109266031092B4
:1012F0007A03109279037894089540E850E06FE5FE
:1013000071E085E593E00E94760340E150E06FEDE7
:1013100071E087E693E00E94760308950E947D09BC
:101320001092800210927F0288ED8AB940E855E25F
:1013300060E070E080E00E940C078FEF8093530321
:1013400010926503109278031092770378940895B1
:101350000E948E090E9462090895909384028093EE
:10136000830208951F93182F8A3031F4E09183028D
:10137000F09184028DE00995E0918302F09184025E
:10138000812F09951F910895CF93DF93EC01892B4D
:1013900021F406C021960E94B20988818823D1F7E2
:1013A000DF91CF910895EF92FF920F931F93CF9308
:1013B000DF937A010097C9F0EC01680F791FC61717
:1013C000D70719F089918823D1F700E010E00AC00F
:1013D0008881882311F0219601C080E20E94B20921
:1013E0000F5F1F4F0E151F0599F7DF91CF911F91CA
:1013F0000F91FF90EF900895CF93DF93EC01892B2D
:1014000019F407C00E94B209FE0121968491882335
:10141000C9F7DF91CF9108958AE00E94B20908953B
:10142000E82FFF27EF70F070E454FF4FE4918E2F08
:101430000E94B20908951F93182F82958F700E9401
:10144000100A812F0E94100A1F9108950F931F9375
:101450008C01812F99270E941B0A802F0E941B0A52
:101460001F910F910895EF92FF920F931F937B01AD
:101470008C01C801AA27BB270E94260AC7010E9427
:10148000260A1F910F91FF90EF9008952F923F929F
:101490004F925F926F927F928F929F92AF92BF9284
:1014A000CF92DF92EF92FF920F931F93CF93DF9330
:1014B000CDB7DEB7A2970FB6F894DEBF0FBECDBF93
:1014C00049A32AA327013801442351F017FF08C07C
:1014D000EE24FF248701E418F5080609170902C065
:1014E00083017201262E90E029A1211191E0322C76
:1014F000391A3A9418A2A82EBB24A7FCB094CB2C7E
:10150000DB2CC801B701A60195010E941618FB014A
:10151000EF70F070E454FF4F64916F8FC801B70112
:10152000A60195010E94161879018A012FE1822EE9
:10153000912C8C0E9D1E23C0C4010197E114F1046F
:1015400001051105C1F04C01C801B701A6019501C3
:101550000E941618FB01EF70F070E454FF4F649185
:10156000F4016083C801B701A60195010E94161815
:1015700079018A0104C04C012AA1FC0120833A941C
:101580008FEF3816C9F699A19923D9F077FE05C0D7
:101590008DE2F40182934F0114C0C40101974114FC
:1015A00051046104710419F04C018BE202C04C013A
:1015B00080E2F401808305C0F40181914F010E9413
:1015C000B2092A94FFEF2F16B9F7A2960FB6F89436
:1015D000DEBF0FBECDBFDF91CF911F910F91FF9066
:1015E000EF90DF90CF90BF90AF909F908F907F90C3
:1015F0006F905F904F903F902F9008959F92AF9281
:10160000BF92CF92DF92EF92FF920F931F93CF93EF
:10161000DF93CDB7DEB722970FB6F894DEBF0FBECB
:10162000CDBF9888C988DA88CE0143969A8389838A
:1016300005C0882309F475C00E94B20996012F5F86
:101640003F4F992021F0F6016901849103C0F60112
:1016500080816901853269F72F5F3F4F992021F022
:10166000F6016901849103C0F60180816901843625
:1016700009F44DC0883751F08336F1F6E981FA81DB
:101680003296FA83E98332978081D6CFE981FA8155
:101690003296FA83E98312910291E12C60E1F62EF1
:1016A00050E1A52EB12C1EC0109501951F4F8DE263
:1016B0000E94B20940E1E42E47E2F42E20E030E03F
:1016C0000BC0C7016AE070E00E94EF177B012F5F3B
:1016D0003F4F2430310519F00E151F0590F33AE005
:1016E000A32EB12CC801B7010E94EF17CB010E94B5
:1016F000100AC801B7010E94EF178C01C701B5019C
:101700000E94EF177B01672B09F498CFEBCFE9819B
:10171000FA813296FA83E98312910291112354F6E9
:10172000C3CF80E090E022960FB6F894DEBF0FBEE4
:10173000CDBFDF91CF911F910F91FF90EF90DF9080
:10174000CF90BF90AF909F900895089583B7887F02
:10175000846083BF12BE87B7816087BF10927B030E
:1017600010927C0310927D0310927E0310928B03E3
:1017700010928C0310928D0310928E0308958EB5F3
:10178000887F83608EBD1DBC1CBC87B7846087BF0B
:10179000089585B5887F826085BD14BC87B7806455
:1017A00087BF1092870310928803109289031092CA
:1017B0008A0310927F03109280031092810310928B
:1017C00082030895EAE8F0E08081887F8360808367
:1017D0001092890010928800EDE7F0E0808184602B
:1017E0008083089593B7987F982B93BF08959EB5F3
:1017F000987F982B9EBD089595B5987F982B95BDA1
:101800000895EAE8F0E09081987F982B90830895FE
:10181000E3B7FF27E770F070EE0FFF1FE353FF4FB2
:10182000859194910895EEB5FF27E770F070EE0F63
:10183000FF1FE353FF4F859194910895E5B5FF276E
:10184000E770F070EE0FFF1FE353FF4F8591949107
:101850000895E0918A00FF27E770F070EE0FFF1FF8
:10186000E353FF4F8591949108958E3040F4E82F13
:10187000FF27EE0FFF1FEB57FD4F71836083089525
:101880008E3040F4E82FFF27EE0FFF1FEB57FD4F80
:10189000118210820895DF92EF92FF920F931F93AF
:1018A0007C01D4B4109283031092840310928503B8
:1018B000109286030E941E0C9C014427552760E06D
:1018C00074E284EF90E00E943818293B8DE83807D5
:1018D00086E0480780E0580798F481E1E81687E23F
:1018E000F80670F4B701882799270E94D01728EED0
:1018F00033E040E050E00E94161879018A0123C0CD
:1019000000271127CA01B90128EE33E040E050E07A
:101910000E941618C801B7010E94D0177B018C01E4
:1019200012C08091830390918403A0918503B091AC
:10193000860385B7837E85BF85B7806285BF88951E
:1019400085B78F7D85BF8091830390918403A0919B
:101950008503B091860324B5BA2FA92F982F882725
:10196000332744275527822B932BA42BB52BA80173
:1019700097012D0D311D411D511D82179307A4079D
:10198000B50778F21F910F91FF90EF90DF900895C7
:1019900010927B0310927C0310927D0310927E03C1
:1019A00010928B0310928C0310928D0310928E0371
:1019B000089560917B0370917C0380917D039091E9
:1019C0007E03089510928703109288031092890372
:1019D00010928A0310927F03109280031092810369
:1019E000109282030895609187037091880380911B
:1019F000890390918A030895893031F48FB582600C
:101A00008FBD8FB58E7F0AC08A3019F48FB5826082
:101A100002C08FB58D7F8FBD8FB581608FBD1BBC20
:101A20001ABC19BC18BC1092790010927800089565
:101A30002FB52E7F2FBD2FB522602FBD2EB528606C
:101A40002EBD2EB520612EBD292F332727BD86BD83
:101A50001BBC1ABC19BC18BC1092790010927800FB
:101A600008958FB580688FBD8FB58F7B8FBD08952A
:101A70008FB580628FBD8FB58F7E8FBD08958FB576
:101A800088608FBD8FB58B7F8FBD08958FB58F77A1
:101A90008FBD8FB58F7B8FBD08958FB58F7D8FBD27
:101AA0008FB58F7E8FBD08958FB5877F8FBD8FB522
:101AB0008B7F8FBD0895292F33272BBD8ABD0895B5
:101AC000292F332729BD88BD0895292F3327209337
:101AD0007900809378000895893049F480918B00D3
:101AE000826080938B0080918B008E7F0EC08A3045
:101AF00021F480918B00826003C080918B008D7FE8
:101B000080938B0080918B00816080938B0010927A
:101B10008700109286001092850010928400109227
:101B20008300109282000895EBE8F0E020812E7F80
:101B30002083208122602083EAE8F0E02081286071
:101B40002083208120612083292F33272093810047
:101B5000809380001092870010928600109285007A
:101B60001092840010928300109282000895EBE896
:101B7000F0E080818068808380818F7B80830895FE
:101B8000EBE8F0E080818062808380818F7E8083BB
:101B90000895EBE8F0E080818860808380818B7F0E
:101BA00080830895EBE8F0E080818F7780838081E7
:101BB0008F7B80830895EBE8F0E080818F7D8083C8
:101BC00080818F7E80830895EBE8F0E08081877FBD
:101BD000808380818B7F80830895292F33272093F2
:101BE0008700809386000895292F3327209385004E
:101BF000809384000895292F3327209383008093B6
:101C0000820008951F920F920FB60F9211242F9306
:101C10003F934F935F936F937F938F939F93AF9374
:101C2000BF93EF93FF9380917B0390917C03A091EE
:101C30007D03B0917E030196A11DB11D80937B03AE
:101C400090937C03A0937D03B0937E0380917B03EC
:101C500090917C03A0917D03B0917E030097A10534
:101C6000B10599F480918B0390918C03A0918D0321
:101C7000B0918E030196A11DB11D80938B039093AB
:101C80008C03A0938D03B0938E0380918502909175
:101C90008602892B29F0E0918502F0918602099550
:101CA000FF91EF91BF91AF919F918F917F916F9134
:101CB0005F914F913F912F910F900FBE0F901F900A
:101CC00018951F920F920FB60F9211242F933F93E6
:101CD0004F935F936F937F938F939F93AF93BF9334
:101CE000EF93FF938091890290918A02892B29F0CA
:101CF000E0918902F0918A020995FF91EF91BF91DD
:101D0000AF919F918F917F916F915F914F913F9193
:101D10002F910F900FBE0F901F9018951F920F924A
:101D20000FB60F9211242F933F934F935F936F93AE
:101D30007F938F939F93AF93BF93EF93FF93809184
:101D4000870390918803A0918903B0918A0301963B
:101D5000A11DB11D8093870390938803A0938903ED
:101D6000B0938A038091870390918803A09189039F
:101D7000B0918A030097A105B10599F480917F0382
:101D800090918003A0918103B09182030196A11DDF
:101D9000B11D80937F0390938003A0938103B09340
:101DA00082038091830390918403A0918503B09175
:101DB00086030196A11DB11D809383039093840334
:101DC000A0938503B093860380919302909194022F
:101DD000892B29F0E0919302F09194020995FF91EB
:101DE000EF91BF91AF919F918F917F916F915F9193
:101DF0004F913F912F910F900FBE0F901F9018950C
:101E00001F920F920FB60F9211242F933F934F936F
:101E10005F936F937F938F939F93AF93BF93EF9352
:101E2000FF938091970290919802892B29F0E0917D
:101E30009702F09198020995FF91EF91BF91AF91B0
:101E40009F918F917F916F915F914F913F912F91D2
:101E50000F900FBE0F901F9018951F920F920FB604
:101E60000F9211242F933F934F935F936F937F9320
:101E70008F939F93AF93BF93EF93FF9380918702CC
:101E800090918802892B29F0E0918702F0918802D5
:101E90000995FF91EF91BF91AF919F918F917F91A4
:101EA0006F915F914F913F912F910F900FBE0F90C7
:101EB0001F9018951F920F920FB60F9211242F9317
:101EC0003F934F935F936F937F938F939F93AF93C2
:101ED000BF93EF93FF9380918B0290918C02892B9B
:101EE00029F0E0918B02F0918C020995FF91EF911E
:101EF000BF91AF919F918F917F916F915F914F9122
:101F00003F912F910F900FBE0F901F9018951F9229
:101F10000F920FB60F9211242F933F934F935F931D
:101F20006F937F938F939F93AF93BF93EF93FF93A1
:101F300080918D0290918E02892B29F0E0918D0283
:101F4000F0918E020995FF91EF91BF91AF919F9112
:101F50008F917F916F915F914F913F912F910F9052
:101F60000FBE0F901F9018951F920F920FB60F92F1
:101F700011242F933F934F935F936F937F938F938E
:101F80009F93AF93BF93EF93FF9380918F029091B4
:101F90009002892B29F0E0918F02F091900209952F
:101FA000FF91EF91BF91AF919F918F917F916F9131
:101FB0005F914F913F912F910F900FBE0F901F9007
:101FC00018951F920F920FB60F9211242F933F93E3
:101FD0004F935F936F937F938F939F93AF93BF9331
:101FE000EF93FF938091910290919202892B29F0B7
:101FF000E0919102F09192020995FF91EF91BF91CA
:10200000AF919F918F917F916F915F914F913F9190
:102010002F910F900FBE0F901F9018951F920F9247
:102020000FB60F9211242F933F934F935F936F93AB
:102030007F938F939F93AF93BF93EF93FF93809181
:10204000950290919602892B29F0E0919502F091EA
:1020500096020995FF91EF91BF91AF919F918F915A
:102060007F916F915F914F913F912F910F900FBE94
:102070000F901F9018951F920F920FB60F92112478
:102080002F933F934F935F936F937F938F939F9380
:10209000AF93BF93EF93FF938091990290919A022F
:1020A000892B29F0E0919902F0919A020995FF910C
:1020B000EF91BF91AF919F918F917F916F915F91C0
:1020C0004F913F912F910F900FBE0F901F90189539
:1020D0001F920F920FB60F9211242F933F934F939D
:1020E0005F936F937F938F939F93AF93BF93EF9380
:1020F000FF9380919B0290919C02892B29F0E091A3
:102100009B02F0919C020995FF91EF91BF91AF91D5
:102110009F918F917F916F915F914F913F912F91FF
:102120000F900FBE0F901F9018951F920F920FB631
:102130000F9211242F933F934F935F936F937F934D
:102140008F939F93AF93BF93EF93FF9380919D02E3
:1021500090919E02892B29F0E0919D02F0919E02C0
:102160000995FF91EF91BF91AF919F918F917F91D1
:102170006F915F914F913F912F910F900FBE0F90F4
:102180001F9018951F920F920FB60F9211242F9344
:102190003F934F935F936F937F938F939F93AF93EF
:1021A000BF93EF93FF9380919F029091A002892BA0
:1021B00029F0E0919F02F091A0020995FF91EF9123
:1021C000BF91AF919F918F917F916F915F914F914F
:1021D0003F912F910F900FBE0F901F901895E5E83B
:1021E000F2E011821082329682E0E13AF807C9F7F4
:1021F0000E94A60B0E94BF0B0E94C90B0E94E20B1B
:10220000789408958FB58D7F8FBD8FB58E7F8FBDEC
:102210008FB58F778FBD8FB58F7B8FBD8FB58F7D3E
:102220008FBD8FB58F7E8FBD8FB5877F8FBD8FB5EB
:102230008B7F8FBD0895EBE8F0E080818D7F8083F8
:1022400080818E7F808380818F77808380818F7B68
:10225000808380818F7D808380818F7E8083808159
:10226000877F808380818B7F8083089577277F930A
:102270006F9399279F938F9389EE90E09F938F930D
:1022800081E08F930E94FE0A8DB79EB707960FB626
:10229000F8949EBF0FBE8DBF0895882319F089EF73
:1022A00090E002C082EF90E09F938F9381E08F9344
:1022B0000E94FE0A0F900F900F90089599279F9308
:1022C0008F9380E091E09F938F9381E08F930E94A2
:1022D000FE0A0F900F900F900F900F90089586E0D8
:1022E00091E00E94FC0908958BE091E00E94FC09B6
:1022F0000895CF93DF93CDB7DEB722970FB6F8944A
:10230000DEBF0FBECDBF82E0898383E08A83AE014A
:102310004F5F5F4F61E080EC0E94C90149EA53E0E2
:1023200061E080EC0E949C01AE014E5F5F4F61E076
:1023300080EC0E94C9014FE853E061E080EC0E940C
:102340009C0122960FB6F894DEBF0FBECDBFDF9181
:10235000CF9108951F93CF93DF930E94A80940E087
:1023600052EC61E070E080E00E940C0740EC52E12A
:1023700060E070E081E00E940C070E94EF100E9474
:1023800074110E946D040E946F1188E291E09F9386
:102390008F9311E01F930E94FE0A8EE091E09F93BD
:1023A0008F931F930E94FE0A8DB79EB706960FB6B5
:1023B000F8949EBF0FBE8DBF81E00E9433070E943C
:1023C0006106882309F44DC08091090390910A03A6
:1023D000A0910B03B0910C0380939203909393030D
:1023E000A0939403B09395038091FC029927AA27A8
:1023F000BB278093960390939703A0939803B09381
:1024000099038091FD029091FE02A091FF02B0918C
:10241000000380939A0390939B03A0939C03B09333
:102420009D038091010390910203A0910303B09159
:10243000040380939E0390939F03A093A003B09303
:10244000A1038091050390910603A0910703B09129
:1024500008038093A2039093A303A093A403B093D3
:10246000A50362E480E00E944507C2E9D3E06B89DE
:1024700080E00E944507219793E0CE37D907B9F74E
:1024800081E00E9456048093A60382E00E944204E9
:102490009093A8038093A70383E00E944204909343
:1024A0009103809390030E9479116091A60380E0CC
:1024B0000E94450760918F0380E00E94450760916C
:1024C000A90380E00E94450769E580E00E94450776
:1024D00073CFA0E0B0E0EFE6F2E10C945718FC01F6
:1024E0006A019081923008F41BC1DB018C9182302B
:1024F00080F0943061F4843009F012C19181EB01D5
:102500008981981709F40CC1ECE0F1E009C184302D
:1025100011F4FB0105C1823091F4923009F000C141
:10252000EA01DF0188E00D9009928150E1F7818195
:10253000FB0191818923E6018983F601F1C0923084
:1025400041F362807380EB018A809B80E480F58098
:10255000068117812C813D814E815F815301A8182E
:10256000B908C501B7FCABC080970CF457C08614FE
:1025700097040CF4BEC03401EE24FF24870191813E
:10258000FB018181981709F4A6C0992309F49CC026
:102590002E193F09400B510B57FDB0C0E6011982BF
:1025A0007B826A82F6012483358346835783E60162
:1025B0002C813D814E815F8179018A01DA01C90157
:1025C0000197A109B1098F5F9F4FAF4FBF43F8F447
:1025D000E6016A817B81A8019701220F331F441F06
:1025E000551F6150704079018A01DA01C9010197D4
:1025F000A109B1098F5F9F4FAF4FBF4360F3E60161
:102600007B836A83F601248335834683578383E083
:10261000D6018C9357FD39C0F60182C08614970409
:10262000B4F4C0E0D0E0DA01C90181709070A0700C
:10263000B0705695479537952795282B392B4A2BFF
:102640005B2B2196AC16BD0671F78A0C9B1C681497
:1026500079040CF094CFC0E0D0E05401A618B7087C
:10266000D801C70181709070A070B0701695079561
:10267000F794E794E82AF92A0A2B1B2B2196AC162B
:10268000BD0671F76A0C7B1C7ACFDA01C901B695D9
:10269000A795979587952170307040705070282BC2
:1026A000392B4A2B5B2BE6012C833D834E835F83C2
:1026B0008A819B8101969B838A83F60131C088279A
:1026C00099278A199B0950CFE21AF30A040B150BBC
:1026D000A801970161CFE60199837B826A822E0D62
:1026E0003F1D401F511FF6012483358346835783C6
:1026F0008ECF20E030E040E050E041CF81E0E601C5
:1027000089837B826A8250954095309521953F4F11
:102710004F4F5F4FF601248335834683578347CF5E
:10272000CF01EEE0CDB7DEB70C947318A0E2B0E0B5
:10273000ECE9F3E10C945F1869837A838B839C83C3
:102740002D833E834F83588789E0E82EF12CEC0ED1
:10275000FD1EB701CE0101960E94EE168E010F5E9E
:102760001F4FB801CE0105960E94EE168A8991E0AE
:1027700089278A8BAE01475E5F4FB801C7010E946F
:1027800069120E94CC15E6E0A0960C947B18A0E29A
:10279000B0E0EDECF3E10C945F1869837A838B83EE
:1027A0009C832D833E834F83588799E0E92EF12C3B
:1027B000EC0EFD1EB701CE0101960E94EE168E01B1
:1027C0000F5E1F4FB801CE0105960E94EE16AE01B6
:1027D000475E5F4FB801C7010E9469120E94CC1585
:1027E000E6E0A0960C947B18A0E2B0E0EAEFF3E1FB
:1027F0000C94531869837A838B839C832D833E8347
:102800004F8358878E01075F1F4FB801CE01019695
:102810000E94EE16F1E1EF2EF12CEC0EFD1EB70139
:10282000CE0105960E94EE168985823078F099894E
:10283000923040F420E09A858A89981321E02A8B0F
:10284000B701E9C0843051F4923061F020E09A85FC
:102850008A89981321E02A87B801DDC0943029F4D1
:10286000823041F76CE071E0D6C0823079F392306B
:1028700009F32D853E854F8558898D899E89AF89BD
:10288000B88D222433242101AA24BB246501EE241F
:10289000FF24870160E070E00DC06F5F7F4F603202
:1028A000710599F1880F991FAA1FBB1F569547956F
:1028B0003795279520FF19C0280E391E4A1E5B1E2A
:1028C000662477244301281639064A065B0628F455
:1028D000E1E06E2E712C812C912CAE0CBF1CC01E21
:1028E000D11EA60CB71CC81CD91CEE0CFF1C001F67
:1028F000111FB7FFD2CFE1E06E2E712C812C912CED
:10290000E628F72808291929C8CF8B859C852B89AB
:102910003C89820F931F02969C8F8B8F1A8E9A850B
:102920008A89981711F081E08A8FD7FE17C08B8DA6
:102930009C8DA0FE0CC0569447943794279420E0B9
:1029400030E040E050E8222A332A442A552AD6941F
:10295000C794B794A79401969C8F8B8F30E0A316F1
:1029600030E0B30630E0C30630E4D30618F58B8DB3
:102970009C8D0EC0220C331C441C551C019720E07A
:10298000A21620E0B20620E0C20620E4D20680F4BF
:10299000AA0CBB1CCC1CDD1C57FEECCF31E0632E17
:1029A000712C812C912CA628B728C828D928E2CFD1
:1029B0009C8F8B8FD601C5018F779070A070B070FF
:1029C00080349105A105B10551F0AD8EBE8ECF8E3C
:1029D000D8A283E0898FBE01675E7F4F1CC0A7FC31
:1029E000F4CF211431044104510479F380E490E0E0
:1029F000A0E0B0E0A80EB91ECA1EDB1E80E8682E5B
:102A00008FEF782E8FEF882E8FEF982EA620B7208D
:102A1000C820D920DACFCB010E94CC15E2E1A096E4
:102A20000C946F18A8E1B0E0E8E1F5E10C945918B6
:102A300069837A838B839C832D833E834F8358875E
:102A4000B9E08B2E912C8C0E9D1EB401CE01019607
:102A50000E94EE168E010F5E1F4FB801CE01059643
:102A60000E94EE162985223008F46AC03989323076
:102A700008F468C08A859A8989278A87243009F4EE
:102A800063C0223009F460C0343041F41D861E86D4
:102A90001F86188A1C861B86B40177C0323009F461
:102AA00058C06B857C858B899C89681B790B7C87DA
:102AB0006B872D853E854F855889ED88FE880F8967
:102AC000188D2E153F054007510740F4220F331F84
:102AD000441F551F615070407C876B8780E090E0F9
:102AE000A0E0B0E4AA24BB24650160E070E02E15EC
:102AF0003F054007510740F0A82AB92ACA2ADB2A15
:102B00002E193F09400B510BB695A79597958795C0
:102B1000220F331F441F551F6F5F7F4F6F317105A9
:102B200031F7D601C5018F779070A070B0708034F6
:102B30009105A105B10589F0AD86BE86CF86D88AFC
:102B4000B40123C0B80121C03217D1F76CE071E0A5
:102B50001CC084E08987B40118C0A7FCEDCF211503
:102B600031054105510541F380E490E0A0E0B0E07B
:102B7000A80EB91ECA1EDB1E80E89FEFAFEFBFEFA5
:102B8000A822B922CA22DB22D7CFCB010E94CC15C2
:102B9000ECE068960C9475184F925F926F927F925A
:102BA0008F929F92AF92BF92DF92EF92FF920F931C
:102BB0001F9320E030E040E050E0FC01E480F5802D
:102BC00006811781D1808081823038F4D801C70115
:102BD000A061AF77B0706FEFD9C0843009F46EC0D8
:102BE000823009F471C0E114F1040105110509F402
:102BF0006BC0828193816FEF823896070CF06AC0B8
:102C000062E87FEF681B790B6A3171050CF080C0B8
:102C100047015801062E04C0B694A7949794879450
:102C20000A94D2F744245524320181E090E0A0E0D8
:102C3000B0E004C0880F991FAA1FBB1F6A95D2F786
:102C40000197A109B109E822F9220A231B23E11403
:102C5000F1040105110529F061E0462E512C612C8B
:102C6000712C85017401E428F52806291729D8015B
:102C7000C7018F779070A070B07080349105A10566
:102C8000B10509F457C0D801C701CF96A11DB11DE8
:102C900060E070E08030E0E09E07E0E0AE07E0E456
:102CA000BE0710F061E070E027E0B695A795979514
:102CB00087952A95D1F7AF77B07068C080E090E033
:102CC000A0E0B0E06FEF62C080E090E0A0E0B0E094
:102CD00060E05CC0803891058CF7BC0161587F4F83
:102CE000D801C7018F779070A070B07080349105C3
:102CF000A105B105A1F08FE390E0A0E0B0E0E80EFF
:102D0000F91E0A1F1B1F17FD28C0D801C701CCCF11
:102D100060E070E080E090E0A0E0B0E0CCCFE7FEC3
:102D2000F2CF80E490E0A0E0B0E0E80EF91E0A1FC8
:102D30001B1FE9CFE7FC18C080E090E060E0E616DA
:102D400060E0F60660E0060760E4160710F081E038
:102D500090E0BC01D801C701A7CF16950795F7945D
:102D6000E7946F5F7F4FD1CFD801C701805C9F4F41
:102D7000AF4FBF4F60E070E08030E0E09E07E0E0E2
:102D8000AE07E0E4BE0708F48FCF8CCF282F392F91
:102D90009A2F9F77842F8078892B962F9795992744
:102DA00097958F77482F492B6695852F8078862BAE
:102DB000D794DD24D7948F77582F5D29CA01B901A4
:102DC0001F910F91FF90EF90DF90BF90AF909F9079
:102DD0008F907F906F905F904F900895FC01DB0182
:102DE000208131819281492F4F7750E0991F992797
:102DF000991F8381682F660F692B881F8827881F7A
:102E0000FD018183662309F049C021153105410583
:102E1000510509F470C082E89FEFFD01938382831E
:102E2000220F331F441F551F220F331F441F551FEE
:102E3000220F331F441F551F220F331F441F551FDE
:102E4000220F331F441F551F220F331F441F551FCE
:102E5000220F331F441F551F83E08C932030F0E076
:102E60003F07F0E04F07F0E45F0790F482E89FEF40
:102E7000220F331F441F551F0197203060E0360793
:102E800060E0460760E4560798F3FD019383828370
:102E9000FD01248335834683578308956F3F71F185
:102EA000862F99278F579040FD019383828383E07B
:102EB0008C93220F331F441F551F220F331F441FB3
:102EC000551F220F331F441F551F220F331F441F4E
:102ED000551F220F331F441F551F220F331F441F3E
:102EE000551F220F331F441F551F50642483358301
:102EF00046835783089582E08C9308952115310508
:102F00004105510519F484E08C93089544FD02C0F5
:102F10001C92BECF81E08C93BBCFFC018827992700
:102F2000E89421912223F1F02032D9F32930C9F31A
:102F30002A30B9F32C30A9F32D3099F3263789F3D1
:102F40002B3219F02D3221F468942191222351F073
:102F5000203344F02A3334F420530E94C817820FE0
:102F6000911DF3CF8115910521F01EF48095909568
:102F700001960895FB01DC014150504030F08D91E5
:102F80000190801919F40020B9F7881B990B089556
:102F90007AE0979F902D879F802D910D11240895A1
:102FA000629FD001739FF001829FE00DF11D649F2D
:102FB000E00DF11D929FF00D839FF00D749FF00DB9
:102FC000659FF00D9927729FB00DE11DF91F639F5A
:102FD000B00DE11DF91FBD01CF0111240895AA1BF9
:102FE000BB1B51E107C0AA1FBB1FA617B70710F0F4
:102FF000A61BB70B881F991F5A95A9F78095909526
:10300000BC01CD01089597FB092E07260AD077FD54
:1030100004D0E5DF06D000201AF4709561957F4F4B
:103020000895F6F7909581959F4F0895A1E21A2E85
:10303000AA1BBB1BFD010DC0AA1FBB1FEE1FFF1F5C
:10304000A217B307E407F50720F0A21BB30BE40BAC
:10305000F50B661F771F881F991F1A9469F76095F3
:103060007095809590959B01AC01BD01CF010895AD
:1030700097FB092E05260ED057FD04D0D7DF0AD0C6
:10308000001C38F450954095309521953F4F4F4F97
:103090005F4F0895F6F790958095709561957F4FF5
:1030A0008F4F9F4F08952F923F924F925F926F9252
:1030B0007F928F929F92AF92BF92CF92DF92EF92C8
:1030C000FF920F931F93CF93DF93CDB7DEB7CA1B49
:1030D000DB0B0FB6F894DEBF0FBECDBF09942A8874
:1030E000398848885F846E847D848C849B84AA841C
:1030F000B984C884DF80EE80FD800C811B81AA81A9
:10310000B981CE0FD11D0FB6F894DEBF0FBECDBF73
:10311000ED0108954ED1CF93DF93D52FC42F5527BE
:103120004427332722279923D9F09F37C8F0F92F56
:103130000ED1592F482F372F262FF63968F4D6D0C5
:10314000F2D0C030CD0721F0699379938993999398
:103150009058DF91CF911BCB992788277727662737
:10316000C030CD0721F02993399349935993DF91CA
:10317000CF91EDC077276627B3D0C82FD92F7F9383
:103180006F939D2E8C2E09910032E9F30930D9F30B
:103190000637C9F30C30B9F30A30A9F30D3099F3AF
:1031A00053D070D0EEF1BDD017FB97F9C92ED82EB1
:1031B000E72EF62E88270062053651F4099144D097
:1031C0004BD0992319F017FD3DC036C017FD8195EE
:1031D000ECE8F0E0182F9C2D8D2D7E2D6F2D9F7724
:1031E0009817870776076105D9F01A0D3AF41195FB
:1031F0007896912F9B1997322CF504C0912F9B0D37
:103200009732D4F49C2D112359F0159538F495D0AC
:10321000EF93FF93E9DAFF91EF91F5CF3496F3CF77
:10322000EF91FF91E030EF0711F081929082ECE096
:10323000CDB7DEB70C9475189C2D9F678FE77FEF95
:103240006FEFEECFC5D0ECCF11270B3219F00D3256
:1032500011F41068099108958827992700338CF09C
:1032600011F415FF0AC00A3364F41062992329F49B
:103270000E94C8170F70800F911D9D2E8C2E0991F2
:10328000EDCF08956894A4D0BB24BA94AA240E323A
:1032900029F416FD24C0106406F11DC00033FCF0B3
:1032A00019F4E89415FF12C00A33CCF410629F3071
:1032B00084F4B394E8945527442733272AE00E94E6
:1032C000D0170F70600F711D811D911D16FDAA94FE
:1032D00002C016FFA3949D2E8C2E0991D8CF08957D
:1032E000AA27BB27FF91EF910C94591897FB53D055
:1032F0009F3738F0FEE9F91B982F872F762F6B2F19
:1033000005C066C09695879577956795F150D0F77B
:103310003EF490958095709561957F4F8F4F9F4FAC
:103320000895E89403C097FB0EF4F3DFB62F672FE0
:10333000782F892F9EE900240AC055914591359137
:10334000259108959A95BB0F661F771F881F11243A
:103350009923A1F08823B2F79F3F59F0BB0F48F49F
:1033600021F4002011F460FF04C06F5F7F4F8F4F86
:103370009F4F881F9795879597F9089529C0052E27
:10338000092607FA440F551F5F3F79F0AA27A517B2
:1033900008F051E04795880F991F9F3F31F0BB27F8
:1033A000B91708F091E0879508959F919F91112496
:1033B00014C097FB880F991F9F3F31F0BB27B917A7
:1033C00008F091E0879508959F919F91112405C081
:1033D000662777278827992708959FEF80EC08951F
:1033E00047504747410047505654470000000000EF
:0433F00000000000D9
:00000001FF
